:020000020000FC
:040000000C941C0040
:040010000C94C70085
:100034000C94E2000FEF0DBF18E01EBF407924308E
:10004400191202780010F0E0E0E40FEF0AB900E1C1
:1000540004B90FE307B90FE005B901E000936800A4
:1000640001E000936F000FE000936B000E94BC005E
:10007400789400E00093C10000E010E020E030E05C
:1000840040E050E060E070E080E090E0A0E0B0E0AC
:10009400C0E0D0E000241124222433244424039417
:1000A4001394339430FF2AC044984598F0E0E0E478
:1000B400E60F419A44914BB90E94B5004198F0E093
:1000C400E0E4E20F409A44914BB90E94B500409895
:1000D400F0E0E0E4E70F429AB0FF5F9A5F98449142
:1000E4004BB90E94B5004298F0E0E0E4E90F439A6E
:1000F40044914BB90E94B5004398D4CF31FF2AC034
:10010400449A4598F0E0E0E4E00D419A44914BB9FB
:100114000E94B5004198F0E0E0E4E20D409A449179
:100124004BB90E94B5004098F0E0E0E4E30D429A38
:10013400B0FF5F9A5F9844914BB90E94B500429812
:10014400F0E0E0E4E40D439A44914BB90E94B50019
:100154004398A8CF32FFA6CF4498459AA3CF0FEF78
:100164000A95F1F708958FEF04E60A95F1F78A9559
:10017400D9F7089503E0009381000BE00093850014
:100184000CED00938400002708950F930FB70F938D
:10019400A395A1FF10C0AA2750FF05C051FF05C0B9
:1001A40052FF05C006C031E006C032E004C034E0AE
:1001B40002C038E000C053B10F910FBF0F911895E2
:1001C4000F930FB70F930BE0009385000CED009392
:1001D4008400B0FF01C002C0B1E002C0B0E000C0C2
:1001E40063956A3029F07FC00F910FBF0F91189566
:1001F40066272395263009F076C02227739592301E
:1002040031F07A3009F06FC0772793956CC0743061
:1002140009F069C0772766272227992782E01816F4
:1002240001F082E02816A1F103C083E0281629F02A
:100234008AE00394081689F156C081E01816F1F09B
:1002440083E01816D9F084E01816E9F085E0181652
:10025400A9F086E01816B9F087E0181679F088E05E
:10026400181689F089E0181649F08AE0181659F032
:100274008BE0181619F08CE0181629F081E003942D
:100284000816C1F030C082E00394081699F02BC020
:1002940089E00394081671F026C000240394239483
:1002A40022C000240394222411241394332433946D
:1002B400442419C000240394222481E0481641F008
:1002C400139433948AE0381601F0332443940BC01A
:1002D4003394139482E0381609F005C011243324B2
:0E02E4004424139433940F910FBF0F9118957B
:00000001FF
