:020000020000FC
:040000000C941C0040
:040010000C940F013C
:100034000C9450010FEF0DBF18E01EBF407924301F
:10004400191202780010F0E0E0E40FEF0AB900E1C1
:1000540004B90FE307B90FE005B901E000936800A4
:1000640001E000936F000FE000936B000E94040115
:10007400789400E00093C10000E010E020E030E05C
:1000840040E050E060E070E080E090E0A0E0B0E0AC
:10009400C0E0D0E000241124222433244424039417
:1000A400139433945524662477248824339530FF9D
:1000B40063C070FC672E70FE662E44984598F0E08D
:1000C400E0E4E60F419A44914BB90E94FD00419847
:1000D400F0E0E0E4E20F409A44914BB90E94FD0045
:1000E4004098F0E0E0E4E70F429AB0FF5F9A5F982F
:1000F40044914BB90E94FD004298F0E0E0E4E90F1E
:10010400439A44914BB90E94FD00439833FF6BC05E
:1001140000C000E000936F0070FC459A459870FCA5
:1001240014C0662D6A3051F06F3F09F0C0CF2A9594
:100134002F3F19F469E025E0BACFB9CF662723959C
:10014400263009F0B4CF2227B2CF762D923071F049
:100154007A3049F07F3F09F0AACF9A959F3F59F42E
:1001640092E073E0A4CF77279395A1CF743009F080
:100174009ECF772799279BCF31FF2DC0449A45986E
:10018400F0E0E0E4E00D419A44914BB90E94FD0097
:100194004198F0E0E0E4E20D409A44914BB90E94AA
:1001A400FD004098F0E0E0E4E30D429AB0FF5F9A6E
:1001B4005F9844914BB90E94FD004298F0E0E0E45E
:1001C400E40D439A44914BB90E94FD00439833FFD8
:1001D40001C06DCF6CCF32FF6ACF4498459A33FF8C
:1001E40001C065CF64CF01E000936F0060CF0FEFD3
:1001F4000A95F1F708958FEF04E60A95F1F78A95C9
:10020400D9F7089503E0009381000EEF0093850071
:1002140007E100938400002708950F930FB70F930D
:10022400A395A1FF36C033FD14C0AA2750FF05C013
:1002340051FF05C052FF05C006C031E02AC032E0BC
:1002440028C034E026C0532E38E0352922C03C7F34
:1002540020C0AA2750FF07C051FF0BC052FF0FC098
:1002640053FF12C016C070FE662E70FC672E639496
:1002740010C070FE662E70FC672E6A940AC07394D8
:1002840082E0871521F005C087E0382302C0772477
:1002940000C053B10F910FBF0F9118950F930FB773
:1002A4000F930EEF0093850007E100938400B0FFE5
:1002B40001C002C0B1E002C0B0E000C063956A3082
:1002C40029F076C00F910FBF0F91189566272395DB
:1002D400263009F06DC022277395923031F07A30C0
:1002E40009F066C07727939563C0743009F060C045
:1002F400772766272227992782E0181641F482E09F
:10030400281629F489E003940816C1F151C083E04A
:10031400281629F08AE00394081669F149C081E09F
:100324001816F9F083E01816E1F084E01816F1F0DD
:1003340085E01816B1F086E01816C1F087E01816AB
:1003440081F088E0181669F089E0181679F08AE0DF
:10035400181639F08BE0181649F08CE0181609F0DD
:1003640027C082E00394081649F022C081E0039478
:10037400081621F01DC0002423941AC000240394FD
:10038400222481E0481649F0139433948AE0381605
:1003940009F00EC0332443940BC03394139482E0C9
:1003A400381609F005C011243324442413943394DB
:0803B4000F910FBF0F91189586
:00000001FF
