:020000020000FC
:040000000C9422003A
:040010000C94EF015C
:040034000C945602D0
:100040000C94F9020FEF0DBF18E01EBF4079243069
:10005000191202780010F0E0ECE40FEF0AB900E3A7
:1000600004B90FE307B90FE005B901E00093680098
:1000700001E000936F000FE000936B000E94DF012E
:100080000E94E401789400E00093C10000E010E0D9
:1000900020E030E040E050E060E070E080E090E0A0
:1000A000A0E0B0E0C0E0D0E00024112422243324FA
:1000B0004424AA24FF2403941394339455246624DF
:1000C00077248824BB24CC24DD24EE24339530FF10
:1000D00069C070FC672E70FE662E44984598F0E06B
:1000E000ECE4E60F419A44914BB90E94D801419843
:1000F000F0E0ECE4E20F409A44914BB90E94D80141
:100100004098F0E0ECE4E70F429A44914BB9B0FF1D
:1001100001C002C05F9A02C05F9800C00E94D8016F
:100120004298F0E0ECE4E90F439A44914BB90E9405
:10013000D801439833FF34C100C02D9A00E00093EA
:100140006F0070FC15C0662D6A3059F06F3F09F0E2
:10015000BECF69E02A952F3F19F469E025E0B7CFBB
:10016000B6CF66272395263009F0B1CF2227AFCF2F
:10017000762D7F3F39F0923079F07A3051F07F3F21
:1001800009F0A5CF79E09A959F3F59F492E073E08A
:100190009ECF772793959BCF743009F098CF772720
:1001A000992795CF31FF91C0449A4598F0E0ECE44F
:1001B000E00D419A44914BB90E94D8014198F0E07A
:1001C000ECE4E20D409A44914BB90E94D80140986A
:1001D000F0E0ECE4E30D429A44914BB90E94D8015F
:1001E0004298F0E0ECE4E40D439A44914BB90E944C
:1001F000D801439833FFD4C000C000E000936F00E3
:1002000070FC45C02D9A062C091451F082E0181696
:1002100041F482E0281629F489E00816C4F557CF86
:1002200056CF83E0281624F48AE008165CF54FCFF9
:1002300081E01816F9F083E01816E1F084E0181652
:10024000E9F085E01816B1F086E01816B9F087E0FD
:10025000181681F088E0181669F089E0181671F018
:100260008AE0181639F08BE0181641F08CE0181669
:1002700009F02DCF82E008162CF429CF81E0081672
:100280000CF425CF0024239422CF902C20CF362CA1
:1002900081E0481654F4391409F413948AE03816AE
:1002A0000CF410C0332443940DC0391409F4139492
:1002B00083E038160CF406C011243324442433940C
:1002C000932C00C0932C03CF02CF32FF00CF449871
:1002D000459AF0E0ECE4EB0D419A44914BB90E9451
:1002E000D8014198F0E0ECE4EC0D409A44914BB910
:1002F0000E94D8014098F0E0ECE4ED0D429A449160
:100300004BB90E94D8014298F0E0ECE4EE0D439A1C
:1003100044914BB90E94D801439833FFD8CE00C016
:100320002D9A70FC1BC08AE0B81681F08FEFB816CA
:1003300009F0CDCE89E0B82ECA948FEFC81629F403
:1003400089E0B82E85E0C82EC2CEC1CEBB24C394AE
:1003500086E08C1509F0BBCECC24B9CE8FEF8D157D
:1003600051F082E08E15A9F08AE08D1579F08FEFBB
:100370008D1509F0ACCE89E0D82EEA948FEF8E155A
:1003800071F482E0E82E83E0D82EA1CEDD24E39440
:100390009ECE84E0D81609F09ACEDD24EE2497CEC6
:1003A00001E000936F0093CE0FEF0A95F1F70895E7
:1003B0008FEF04E60A95F1F78A95D9F7089505E0DD
:1003C00005BD04E606BD089503E0009381000BE03F
:1003D000009385000CED00938400002708950F938F
:1003E0000FB70F93A395A1FF5CC033FD15C0AA27DB
:1003F00050FF05C051FF05C052FF05C006C031E0E7
:1004000050C032E04EC034E04CC02D9A532E38E03C
:10041000352947C03C7F45C0AA2750FF07C051FF80
:100420001DC052FF33C053FF36C03BC030FF05C074
:1004300070FE662E70FC672E0FC031FF05C070FE87
:10044000602C70FC632C08C032FF2BC070FEB3948C
:1004500070FCD39400C025C0639423C030FF05C056
:1004600070FE662E70FC672E0FC031FF05C070FE57
:10047000602C70FC632C08C032FF13C070FEBA946D
:1004800070FCDA9400C00DC06A940BC0739482E0D3
:10049000871529F006C02D9887E0382302C07724FD
:1004A00000C053B10F910FBF0F9118950F930FB765
:1004B0000F930BE0009385000CED00938400E91688
:1004C00049F4D71639F4C21629F4B61619F401E026
:1004D00000936E0081E0A394A81649F4B0FF01C018
:1004E00003C0AA24B1E003C0AA24B0E000C0139561
:1004F000103F29F4112763956A3029F076C00F91D7
:100500000FBF0F91189566272395263009F06DC00F
:1005100022277395923031F07A3009F066C0772740
:10052000939563C0743009F060C07727662722274F
:10053000992782E0181641F482E0281629F489E010
:1005400003940816C1F151C083E0281629F08AE00F
:100550000394081669F149C081E01816F9F083E0A8
:100560001816E1F084E01816F1F085E01816B1F0E5
:1005700086E01816C1F087E0181681F088E018169A
:1005800069F089E0181679F08AE0181639F08BE0E6
:10059000181649F08CE0181609F027C082E0039481
:1005A000081649F022C081E00394081621F01DC00E
:1005B000002423941AC000240394222481E04816C6
:1005C00049F0139433948AE0381609F00EC03324AE
:1005D00043940BC03394139483E0381609F005C09C
:1005E000112433244424139433940F910FBF0F919B
:1005F00018950F930FB70F9304E606BD81E0891598
:10060000F39484E6F816C1F4FF242C9B02C02C99C5
:1006100009C02C9A83948CE3881671F400E000934F
:100620006E000AC02C9883948CE3881629F48824E1
:1006300000E000936E0000C00F910FBF0F9118955E
:00000001FF
