:020000020000FC
:040000000C941C0040
:040010000C94C70085
:100034000C94E2000FEF0DBF18E01EBF407924308E
:10004400191202780010F0E0E0E40FEF0AB900E1C1
:1000540004B90FE307B90FE005B901E000936800A4
:1000640001E000936F000FE000936B000E94BC005E
:10007400789400E00093C10000E010E020E030E05C
:1000840040E050E060E070E080E090E0A0E0B0E0AC
:10009400C0E0D0E000241124222433244424039417
:1000A4001394339430FF2AC044984598F0E0E0E478
:1000B400E60F419A44914BB90E94B5004198F0E093
:1000C400E0E4E20F409A44914BB90E94B500409895
:1000D400F0E0E0E4E70F429AB0FF5F9A5F98449142
:1000E4004BB90E94B5004298F0E0E0E4E90F439A6E
:1000F40044914BB90E94B5004398D4CF31FF2AC034
:10010400449A4598F0E0E0E4E00D419A44914BB9FB
:100114000E94B5004198F0E0E0E4E20D409A449179
:100124004BB90E94B5004098F0E0E0E4E30D429A38
:10013400B0FF5F9A5F9844914BB90E94B500429812
:10014400F0E0E0E4E40D439A44914BB90E94B50019
:100154004398A8CF32FFA6CF4498459AA3CF0FEF78
:100164000A95F1F708958FEF04E60A95F1F78A9559
:10017400D9F7089503E0009381000EEF0093850002
:1001840007E100938400002708950F930FB70F939E
:10019400A395A1FF10C0AA2750FF05C051FF05C0B9
:1001A40052FF05C006C031E006C032E004C034E0AE
:1001B40002C038E000C053B10F910FBF0F911895E2
:1001C4000F930FB70F930EEF0093850007E1009391
:1001D4008400B0FF01C002C0B1E002C0B0E000C0C2
:1001E40063956A3029F076C00F910FBF0F9118956F
:1001F40066272395263009F06DC022277395923027
:1002040031F07A3009F066C07727939563C0743073
:1002140009F060C0772766272227992782E01816FD
:1002240041F482E0281629F489E003940816C1F108
:1002340051C083E0281629F08AE00394081669F176
:1002440049C081E01816F9F083E01816E1F084E063
:100254001816F1F085E01816B1F086E01816C1F012
:1002640087E0181681F088E0181669F089E01816FE
:1002740079F08AE0181639F08BE0181649F08CE012
:10028400181609F027C082E00394081649F022C02A
:1002940081E00394081621F01DC0002423941AC0A1
:1002A40000240394222481E0481649F013943394E3
:1002B4008AE0381609F00EC0332443940BC03394FB
:1002C400139482E0381609F005C011243324442421
:0C02D400139433940F910FBF0F911895F5
:00000001FF
